:03000000020036C5
:0C003600787FE4F6D8FD75817302021F8C
:03004300020500B3
:03005300020500A3
:1005000002082D000208B7000208980002085100F6
:100510000206F50002064E000200420002005200F0
:100520000203FF000209A3000209A4000209A500BA
:100530000209A6000209A7000209A8000209A900F1
:100540000209AA00020052000209AB000209AC0035
:100550000209AD000209AE000209AF000209B000B5
:100560000209B100020052000200520002005200D3
:100570000209B2000209B3000209B4000209B50081
:100580000209B6000209B7000209B8000209B90061
:100590000209BA000209BB000209BC000209BD0041
:1005A0000209BE000209BF000209C0000209C10021
:0805B0000209C2000209C300A8
:100400001201000200000040B404041000000102C8
:1004100000010A06000200000040010009023C0041
:1004200001010080640904000006FF0000000705C8
:10043000020200020007050402000200070586020E
:1004400000020007058802000200070501024000C3
:10045000000705810240000009023C000101008004
:10046000640904000006FF000000070502024000C6
:10047000000705040240000007058602400000074F
:1004800005880240000007050102400000070581C1
:1004900002400000040309041003690051007500C4
:1004A000720079007500730010035500530042007C
:0A04B0005F00490032004300000025
:10060A0090E740F0E490E68AF090E68B2275860047
:10061A005391EF90E65D22120949120941120981AC
:10062A000209411206C074262518F8A60722856B0E
:10063A0082856A83A37402F022856D82856C83A306
:04064A007407F0221F
:040979007580FC2267
:04097D0053B2FE2251
:0409810043B201225A
:03099100A280221F
:0409850053B2FD224A
:0409890043B2022251
:03099400A281221B
:06093B00120941120949F6
:07094100E4FF000FBF0AFBF9
:01094800228C
:0D0949007F6412097D1209914003DFF9223D
:01095600227E
:10092B008F1A8D1B120907E51A451BFF12075A2256
:02075A00AE07E8
:10075C00E4FDEE30E70512098580031209891206C3
:10076C0021EE25E0FE0DBD08E912098512093B12A8
:09077C0009949204120627A2045C
:010785002251
:0206C000AE0783
:1006C200E4FDFC120949120941ED25E0FD120994ED
:1006D20050034305011206270CBC08E7EE60051221
:1006E200098580031209891206211209851209411E
:0206F200AF0552
:0106F40022E3
:100907001209491209411209891209411209810282
:02091700094194
:0C00460012098912093B120985020941C8
:1008750090E605E054FDF0D2007590FF75B30312C4
:10088500097990E600E054E74410F090E601E04471
:0308950040F0220E
:0100320022AB
:02099700D32269
:02099900D32267
:02099B00D32265
:0809690090E6BAE0F523D32269
:09095700E52312060A04F0D32284
:0809710090E6BAE0F522D32262
:09096000E52212060A04F0D3227C
:02099D00D32263
:02099F00D32261
:0209A100D3225F
:1003860012060EF090E6A0E020E1F990E68BE0641C
:0303960002705B97
:10039900F524F521FDAF2512092B5005752401809F
:1003A9004790E740E0FF12075A500575240280384C
:1003B9007D01AF2512092B90E741E0F521D3944047
:1003C9004003752140E521D39400401C1521E4F533
:1003D90018E518C395215009E4FF12062D05188068
:0B03E900F07F0112062D0521120046D6
:0103F40022E6
:1005B80012060EF090E6A0E020E1F990E68BE0F557
:0605C80018D39400403B33
:1005CE00E4F524FDAF2512092B5005752401802872
:1005DE00E4F519E519C39518501E74402519F582D6
:1005EE00E434E7F583E0FF12075A5008E5192402B8
:0B05FE00F5248004051980DB12004684
:0106090022CE
:1009190090E740E52412060D04F090E6A0E044803B
:02092900F022BA
:1007B200E4FFEFC39521501574262FF8E6FE74402E
:1007C2002FF582E434E7F583EEF00F80E512060E92
:0A07D200E521F090E6A0E04480F07D
:0107DC0022FA
:1008D60012060EF090E6A0E020E1F990E68BE0FF2C
:0B08E600BF010890E740E025E0F52589
:0108F10022E4
:10082D00C0E0C083C082C085C084C086758600D2FA
:10083D000112061A7401F0D086D084D085D082D0F2
:04084D0083D0E03242
:10089800C0E0C083C082C085C084C08612061774B9
:0F08A80004F0D086D084D085D082D083D0E032C7
:1008B700C0E0C083C082C085C084C086120617749A
:0F08C70002F0D086D084D085D082D083D0E032AA
:1006F500C0E0C083C082C085C084C0867586008581
:100705006E6A856F6B12063885666C85676D120695
:100715004312061A7410F0D086D084D085D082D0CA
:0407250083D0E0326B
:10085100C0E0C083C082C085C084C086758600D2D6
:100861000312061A7408F0D086D084D085D082D0C5
:0408710083D0E0321E
:10064E00C0E0C083C082C085C084C086758600901D
:10065E00E680E030E71285666A85676B120638859C
:10066E006E6C856F6D12064312061A7420F0D086DA
:0B067E00D084D085D082D083D0E03241
:01004200328B
:01005200327B
:0103FF0032CB
:0109A3003221
:0109A4003220
:0109A500321F
:0109A600321E
:0109A700321D
:0109A800321C
:0109A900321B
:0109AA00321A
:0109AB003219
:0109AC003218
:0109AD003217
:0109AE003216
:0109AF003215
:0109B0003214
:0109B1003213
:0109B2003212
:0109B3003211
:0109B4003210
:0109B500320F
:0109B600320E
:0109B700320D
:0109B800320C
:0109B900320B
:0109BA00320A
:0109BB003209
:0109BC003208
:0109BD003207
:0109BE003206
:0109BF003205
:0109C0003204
:0109C1003203
:0109C2003202
:0109C3003201
:0A03F50000010202030304040505E1
:10072900EC4EFEED4F24F5F58274033EF583E49318
:10073900FF3395E0FEEF24A1FFEE34E68F82F583C7
:100749002290E6BCE0547EFF7E00E0D394807C00DA
:01075900227D
:10021F00E4F513F512F511F510C203C200C202C2C4
:10022F00011208757E047F008E688F6975700475E2
:10023F00711275660475671C756E04756F5875724B
:10024F0004757394EE54C070030203207514007587
:10025F0015808E168F17C374B89FFF74049ECF241A
:10026F0002CF3400FEE48F0F8E0EF50DF50CF50B5B
:10027F00F50AF509F508AF0FAE0EAD0DAC0CAB0BD3
:10028F00AA0AA909A808C31206895033E517250B36
:10029F00F582E516350AF583E0FFE515250BF582A6
:1002AF00E514350AF583EFF0E50B2401F50BE43582
:1002BF000AF50AE43509F509E43508F50880B7852C
:1002CF00146885156974002480FF740434FFFEC31D
:1002DF00E5719FF571E5709EF570C3E56B9FF56B4A
:1002EF00E56A9EF56AC3E56D9FF56DE56C9EF56C4D
:1002FF00C3E5679FF567E5669EF566C3E56F9FF5F6
:10030F006FE56E9EF56EC3E5739FF573E5729EF50F
:10031F0072D2E843D82090E668E04409F090E65C9A
:10032F00E0443DF0D2AF90E680E020E105D2041228
:10033F00000390E680E054F7F0538EF8C2031200EA
:10034F0032300105120056C2013003F212099750E4
:10035F00EDC20312080820001690E682E030E70491
:10036F00E020E1EF90E682E030E604E020E0E412E6
:07037F00078612099980C7EF
:1008F20090E60AE054F0600B90E509E030E402D3A0
:0509020022C322D322F4
:1000560090E6B9E012069A01110001650101C0039C
:10006600008806010B0801050900F90A00FF0B02CA
:1000760000A10205A2020AA3020FA40214A5000011
:10008600021712099B400302021790E6BBE024FE0A
:10009600602714603824FD60111460272406705010
:1000A600E56890E6B3F0E569803C1208F2503EE55B
:1000B6007090E6B3F0E571802DE56A90E6B3F0E561
:1000C6006B8023E56C90E6B3F0E56D801990E6BA97
:1000D600E0FF1207DDAA06A9077B01EA494B600D7E
:1000E600EE90E6B3F0EF90E6B4F00202170201F7E5
:1000F6000201F712096002021712097102021712B1
:10010600096902021712095702021712099D4003D4
:1001160002021790E6B8E0247F60151460192402E5
:10012600703AA200E43325E0FFA202E4334F8018C0
:10013600E490E740F0801612074A40047D018002F1
:100146007D00120729E0540190E740F0E4A3F09007
:10015600E68AF090E68B7402F00202170201F712AB
:10016600099F400302021790E6B8E024FE601624B9
:1001760002600302021790E6BAE0B40105C200026B
:1001860002170201F790E6BAE0702D12074A400402
:100196007D0180027D00120729E054FEF090E6BC46
:1001A600E05480131313541FFFE0540F2F90E6837F
:1001B600F0E04420F002021780371209A150529055
:1001C600E6B8E024FE601A2402702690E6BAE0B48F
:1001D6000104D200803B90E6BAE0B402028032808D
:1001E6001012074A40047D0180027D001207298013
:1001F6000390E6A0E04401F08017120386801212F5
:1002060005B8800D12091980081207B2800312087A
:08021600D690E6A0E04480F060
:01021E0022BD
:0300330002098D32
:04098D0053D8EF321A
:1007860090E682E030E004E020E60B90E682E0307E
:10079600E119E030E71590E680E04401F07F147E31
:0C07A600001204BA90E680E054FEF0223D
:1000030030040990E680E0440AF0800790E680E03F
:100013004408F07FDC7E051204BA90E65D74FFF0BD
:0F00230090E65FF05391EF90E680E054F7F02203
:0207DD00A9076A
:1007DF00AE72AF738F828E83A3E064037017AD0187
:1007EF0019ED7001228F828E83E07C002FFDEC3E8D
:0807FF00FEAF0580DFE4FEFF00
:0108070022CE
:1008080090E682E044C0F090E681F0438701000062
:0408180000000022BA
:1004BA008E188F1990E600E054187012E51924017D
:1004CA00FFE43518C313F518EF13F519801590E6F4
:1004DA0000E05418FFBF100BE51925E0F519E518DF
:1004EA0033F518E5191519AE18700215184E60057E
:0604FA0012081C80EE2236
:10081C007400F58690FDA57C05A3E582458370F9EF
:01082C0022A9
:10068900EB9FF5F0EA9E42F0E99D42F0E89C45F0C7
:01069900223E
:10069A00D083D082F8E4937012740193700DA3A3EF
:1006AA0093F8740193F5828883E473740293686003
:0606BA00EFA3A3A380DF03
:00000001FF
